:020000040800F2
:1000000038980020DD010008990D0008530500080C
:10001000950D0008010300085B13000800000000B4
:100020000000000000000000000000004501000882
:100030000503000800000000890100081D100008E9
:10004000F7010008F7010008F7010008F7010008B0
:10005000F7010008F7010008F7010008F7010008A0
:10006000F7010008F7010008F7010008F701000890
:10007000F7010008F7010008F7010008F701000880
:10008000F7010008F7010008F7010008F701000870
:10009000F7010008F7010008F7010008F701000860
:1000A000F7010008F7010008F7010008F701000850
:1000B000F7010008F7010008F7010008F701000840
:1000C000F7010008F7010008F7010008F701000830
:1000D000F70100088D100008F7010008F70100087B
:1000E000F7010008F7010008F7010008F701000810
:1000F000F7010008F7010008F7010008F701000800
:10010000F7010008F7010008F7010008F7010008EF
:10011000F7010008F7010008F7010008F7010008DF
:10012000F7010008F7010008F7010008F7010008CF
:10013000DFF80CD000F076F800480047D51300082F
:1001400038980020224B19680868B0E8F00F80F357
:100150000988BFF36F8F4FF0000080F311884EF0D5
:100160000D0E70470000000006480068006880F32C
:10017000088862B661B6BFF34F8FBFF36F8F00DFA1
:1001800000BF00BF08ED00E0EFF30980BFF36F8F01
:100190000F4B1A6820E9F00F106008B54FF05000BF
:1001A00080F31188BFF34F8FBFF36F8F02F0B2F867
:1001B0004FF0000080F31188BDE808401968086816
:1001C000B0E8F00F80F30988BFF36F8F704700BF6E
:1001D00050000020EFF3058070470000064880477C
:1001E00006480047FEE7FEE7FEE7FEE7FEE7FEE71C
:1001F000FEE7FEE7FEE7FEE72D10000831010008EC
:1002000040EA01039B0703D009E008C9121F08C098
:10021000042AFAD203E011F8013B00F8013B521E18
:10022000F9D27047064C074D06E0E06840F0010344
:1002300094E8070098471034AC42F6D3FFF77CFFF0
:1002400024690008446900081CB5012401F088FEF7
:100250001248022100230A02CDE9001010A1134820
:1002600002F0DEFA044614B111A001F079F8174843
:10027000032100234FF40072CDE9001014A11748A8
:1002800002F0CEFA044614B115A001F069F81B483B
:10029000006801F00BFF01F075FE1CBD1800002086
:1002A0004C45445F5461736B000000004D0D000825
:1002B000537563636573732043726561746520547D
:1002C000616B655F5461736B0D0A00001C000020B8
:1002D0004B45595F5461736B00000000B50B00087B
:1002E000537563636573732043726561746520475A
:1002F0006976655F5461736B0D0A0000140000207D
:1003000000BFFEE77047000051B18200A2F1C04279
:10031000126842F001038200A2F1C042136009E0BA
:100320008200A2F1C0421268034B1A408300A3F17D
:10033000C0431A6070470000FEFF0F00D0E90112B1
:100340001143C26811430269114342691143826932
:100350001143C2691143026A1143426A1143826A1E
:100360001143C26A1143026B114302689200A2F169
:10037000C0421160816808290BD101688900A1F190
:10038000C041096841F0400201688900A1F1C04103
:100390000A60416B0968426B526841EA0211426B84
:1003A000926841EA0221426B928941EA0241426B22
:1003B000128A41EA0251426B127D41EA0261426BAC
:1003C000926911430268521C9200A2F1C04211606E
:1003D000C16AB1F5804F1BD1816B0968826B52688D
:1003E00041EA0211826B926841EA0221826B128A11
:1003F00041EA0251826B127D41EA0261826B92698D
:10040000114302689200A2F1C042C2F8041107E051
:100410006FF0704201688900A1F1C041C1F8042168
:1004200070472DE9F04102460025002600200023F8
:100430000024002791F803C00CF00F0591F803C0C9
:100440000CF0100CBCF1000F03D091F802C04CEA84
:10045000050591F800C0BCF1000F31D014680020F0
:100460002BE04FF0010C0CFA00F3B1F800C00CEADD
:1004700003069E4220D183004FF00F0C0CFA03F7C5
:10048000BC4305FA03FC4CEA040491F803C0BCF138
:10049000280F06D14FF0010C0CFA00FCC2F814C072
:1004A0000AE091F803C0BCF1480F05D14FF0010CF0
:1004B0000CFA00FCC2F810C0401C0828D1D314600C
:1004C000B1F800C0BCF1FF0F34DD546800202EE00D
:1004D00000F1080C4FF0010808FA0CF3B1F800C065
:1004E0000CEA03069E4221D183004FF00F0C0CFA58
:1004F00003F7BC4305FA03FC4CEA040491F803C07B
:10050000BCF1280F05D100F1080C08FA0CF8C2F86C
:10051000148091F803C0BCF1480F07D100F1080C1A
:100520004FF0010808FA0CF8C2F81080401C0828A7
:10053000CED35460BDE8F0810246002093680B40A2
:100540000BB1012000E0002070474161704701615C
:10055000704700BFFEE7000010B504462CB14FF411
:1005600080510548FFF7F1FF04E04FF48051024845
:10057000FFF7EDFF10BD0000001401402DE9F04130
:1005800006460F4614461D462B462246394630463F
:1005900000F08EF904FB05F00249098800F03CF8F0
:1005A000BDE8F0813200002001B502E00098401E55
:1005B000009000980028F9D108BD00B597B001213E
:1005C000080200F02DFC0120019004200390800619
:1005D00007900020029004900590069008900990E2
:1005E00008200A9010200B9000200C900E900F9085
:1005F00010904FF48050119000201290139014909E
:1006000001A81590169008A8FFF798FE0121002078
:10061000FFF77AFE17B000BD70B504460D46002600
:100620002C2000F0A1FA00BF03E0284600F0A0FA59
:10063000761CA642F9D370BD08B50121602000F0F8
:10064000FFFB03208DF8020018208DF803004FF403
:100650008040ADF8000069465B48FFF7E2FE4FF4CA
:100660000040ADF8000069465748FFF7DAFE012068
:10067000ADF8000069465448FFF7D3FE0220ADF8FC
:10068000000069465048FFF7CCFE8020ADF800001E
:1006900069464E48FFF7C5FE4FF48070ADF8000084
:1006A00069464A48FFF7BDFE4FF40070ADF8000000
:1006B00069464648FFF7B5FE4FF48060ADF800008C
:1006C00069464248FFF7ADFE4FF40060ADF8000008
:1006D00069463E48FFF7A5FE4FF48050ADF8000094
:1006E00069463A48FFF79DFE4FF40050ADF8000010
:1006F00069463648FFF795FE4FF48040ADF800009C
:1007000069463248FFF78DFE4FF40040ADF8000017
:1007100069462E48FFF785FE4FF48070ADF8000063
:1007200069462948FFF77DFE4FF40070ADF80000E0
:1007300069462548FFF775FE4FF48060ADF800006C
:1007400069462148FFF76DFE03208DF8020018204E
:100750008DF803001020ADF8000069461A48FFF735
:1007600060FE2020ADF8000069461748FFF759FEEB
:100770008020ADF8000069461348FFF752FE4FF4A1
:100780000060ADF8000069460F48FFF74AFE1020F0
:100790008DF8030003208DF802000220ADF8000060
:1007A00069460A48FFF73DFE10208DF8030003203C
:1007B0008DF802004FF48050ADF800006946024801
:1007C000FFF72FFE08BD0000001401400018014093
:1007D00010B50446072C00DD10BD284804702046E3
:1007E00004EBD0714910A4EB410139B9F020244940
:1007F00008804FF4A0702349088006E04FF4A070F1
:100800001F490880F0201F490880362000F0ACF90D
:10081000082141EA441000F0ABF92A2000F0A4F9C5
:10082000002000F0A5F9002000F0A2F91449098881
:10083000491EC1F3072000F09BF911490978491EB0
:10084000C8B200F095F92B2000F08EF9002000F0DE
:100850008FF9002000F08CF90A490988491EC1F37C
:10086000072000F085F907490978491EC8B200F051
:100870007FF92C2000F078F900BFADE728000020B8
:10088000240000202600002010B5FFF7D5FEFFF75A
:1008900094FE0120FFF760FE00F052F900F038F8F6
:1008A00002480078FFF794FF10BD000028000020E8
:1008B0002DE9F04104460D4616461F462A2000F059
:1008C00053F9201200F054F9E0B200F051F9A119E7
:1008D000491EC1F30F2000F04BF9A119491EC8B2FF
:1008E00000F046F92B2000F03FF9281200F040F903
:1008F000E8B200F03DF9E919491EC1F30F2000F0FC
:1009000037F9E919491EC8B200F032F9BDE8F081A3
:1009100010B5CF2000F028F9002000F029F981203F
:1009200000F026F9302000F023F9ED2000F01CF94A
:10093000642000F01DF9032000F01AF9122000F0E5
:1009400017F9812000F014F9E82000F00DF9852056
:1009500000F00EF9102000F00BF9782000F008F9F3
:10096000CB2000F001F9392000F002F92C2000F032
:10097000FFF8002000F0FCF8342000F0F9F8022025
:1009800000F0F6F8F72000F0EFF8202000F0F0F883
:10099000EA2000F0E9F8002000F0EAF8002000F07A
:1009A000E7F8B12000F0E0F8002000F0E1F81B20AB
:1009B00000F0DEF8B62000F0D7F80A2000F0D8F8F2
:1009C000A22000F0D5F8C02000F0CEF8352000F0CD
:1009D000CFF8C12000F0C8F8112000F0C9F8C520F8
:1009E00000F0C2F8452000F0C3F8452000F0C0F840
:1009F000C72000F0B9F8A22000F0BAF8F22000F009
:100A0000B3F8002000F0B4F8262000F0ADF8012083
:100A100000F0AEF8E02000F0A7F80F2000F0A8F8F2
:100A2000262000F0A5F8242000F0A2F80B2000F00A
:100A30009FF80E2000F09CF8092000F099F854204F
:100A400000F096F8A82000F093F8462000F090F807
:100A50000C2000F08DF8172000F08AF8092000F033
:100A600087F80F2000F084F8072000F081F80020BC
:100A700000F07EF8E12000F077F8002000F078F830
:100A8000192000F075F81B2000F072F8042000F027
:100A90006FF8102000F06CF8072000F069F82A20A9
:100AA00000F066F8472000F063F8392000F060F8A5
:100AB000032000F05DF8062000F05AF8062000F050
:100AC00057F8302000F054F8382000F051F80F208B
:100AD00000F04EF8362000F047F8C82000F048F843
:100AE0002A2000F041F8002000F042F8002000F039
:100AF0003FF8002000F03CF8EF2000F039F82B2000
:100B000000F032F8002000F033F8002000F030F858
:100B1000012000F02DF83F2000F02AF83A2000F0E4
:100B200023F8552000F024F8112000F01DF80348A8
:100B3000FFF73AFD292000F017F810BDFCBF0200B6
:100B400010B502210748FFF700FD40F6FF20FFF730
:100B50002BFD02210348FFF7FAFC40F6FF20FFF7C8
:100B600023FD10BD001801404FF0C04108807047C0
:100B700001490880704700000000026008B50121AB
:100B8000142000F05DF94FF40050ADF8000004208F
:100B90008DF8030069460548FFF743FC0120ADF8D6
:100BA000000069460248FFF73CFC08BD0010014008
:100BB0000008014000BF1BE001210E4800F020F8B2
:100BC00030B10023012211460B48006801F058FEA5
:100BD0004FF40051094800F013F830B1002301220E
:100BE00004210548006801F04BFE142001F044FA8E
:100BF000E2E700000008014018000020001001405A
:100C000070B504460D4629462046FFF795FC01289D
:100C100008D100BF29462046FFF78EFC0128F9D0F5
:100C2000012070BD0020FCE7024A1080024A1180BA
:100C300070470000300000203200002001490860A9
:100C4000704700002C00002010B504465CB901215B
:100C50003248FFF77AFC02213048FFF778FC202168
:100C60002E48FFF774FC012C0BD101212B48FFF714
:100C70006EFC02212948FFF768FC20212748FFF776
:100C800066FC022C0BD101212448FFF760FC0221F5
:100C90002248FFF75CFC20212048FFF756FC032C7C
:100CA0000BD101211D48FFF750FC02211B48FFF723
:100CB0004CFC20211948FFF748FC042C0BD10121E2
:100CC0001648FFF744FC02211448FFF73EFC2021A0
:100CD0001248FFF73AFC052C0BD101210F48FFF712
:100CE00034FC02210D48FFF732FC20210B48FFF7AE
:100CF0002CFC062C0BD101210848FFF726FC022111
:100D00000648FFF722FC20210448FFF720FC072CAF
:100D100003D123210148FFF71AFC10BD000C01404C
:100D200008B50121082000F08BF82320ADF8000061
:100D300010208DF8030001208DF80200694602485A
:100D4000FFF76FFB08BD0000000C014008B501254E
:100D5000002000900024002619E04FF0FF336A467F
:100D60001946002001F092FE0546012D0FD1009892
:100D7000044307A000F0F4FA052C07D10024314603
:100D8000761C01F00700FFF75FFF00E0009CE4E73E
:100D90004B4B4B0000BFFEE77047000070B50021D1
:100DA00000230F22C47804B3154C246804F4E064D3
:100DB000C4F5E064210AC1F10403CA40447804FA8E
:100DC00003F184781440214309010E4C0678A155A3
:100DD000047804F01F050124AC4005786D11AD00C6
:100DE00005F1E025C5F8004109E0047804F01F058D
:100DF0000124AC40044D0678761145F8264070BDBC
:100E00000CED00E000E400E080E100E00249014375
:100E1000024A1160704700000000FA050CED00E086
:100E200029B1064A52690243044B5A6104E0034A5D
:100E300052698243014B5A61704700000010024022
:100E400029B1064A92690243044B9A6104E0034ABD
:100E500092698243014B9A61704700000010024082
:100E600030B500210022002400232D4D6D6805F0CF
:100E70000C0121B1042905D0082923D105E0294D11
:100E8000056022E0274D05601FE0254D6D6805F4E3
:100E90007012234D6D6805F48034022505EB9242F3
:100EA0001CB9214D554305600BE01D4D6D6805F4DF
:100EB00000351DB11C4D5543056002E0194D5543E9
:100EC000056002E0174D056000BF00BF144D6D685E
:100ED00005F0F0010909154D6B5C0568DD404560C2
:100EE0000F4D6D6805F4E061090A104D6B5C4568B3
:100EF000DD4085600A4D6D6805F46051C90A0B4DEF
:100F00006B5C4568DD40C560054D6D6805F440418A
:100F1000890B074D6B5CC568B5FBF3F5056130BD0A
:100F20000010024000127A0000093D00000000207D
:100F30001000002010B500F001F810BD0CB5002025
:100F4000019000903348006840F4803031490860D7
:100F500000BF3048006800F4003000900198401C49
:100F60000190009818B90198B0F5A06FF1D1294807
:100F7000006800F4003010B10120009001E0002072
:100F800000900098012843D12348006840F01000E9
:100F9000214908600846006820F003000860084600
:100FA000006840F0020008601A484068194948602B
:100FB0000846406848600846406840F480604860E1
:100FC0000846406820F47C1048600846406840F4B9
:100FD000E81048600846006840F08070086000BF74
:100FE0000C48006800F000700028F9D009484068FB
:100FF00020F00300074948600846406840F00200BE
:10100000486000BF0348406800F00C000828F9D190
:101010000CBD0000001002400020024010B501F09D
:1010200091FC012801D001F0BFF910BD10B51348A3
:10103000006840F001001149086008464068104906
:1010400008400E494860084600680E4908400B49B0
:1010500008600846006820F4802008600846406860
:1010600020F4FE0048604FF41F008860FFF762FF25
:101070004FF000600449086010BD000000100240FD
:101080000000FFF8FFFFF6FE08ED00E010B540F2AB
:101090002551154800F09CF820B340F22551124824
:1010A00000F02AF8104800F04FF9C4B2212C03D008
:1010B0000E48007814280CD100200C49087001203B
:1010C0000B490870002240F22551074800F0AAF8A9
:1010D00008E0084805490978445404480078401C51
:1010E0000249087010BD0000003801404D0000208A
:1010F0004C000020C000002010B50022002340F664
:101100006A14A14200D100BF0A1201249440A3B284
:10111000DC43048010BD21B1828942F400528281F7
:1011200004E082894DF6FF731A4082817047000007
:1011300010B586B00446012144F20400FFF780FE9A
:101140004FF40070ADF8140003208DF8160018203D
:101150008DF8170005A91C48FFF763F94FF480606C
:10116000ADF8140004208DF8170005A91648FFF704
:1011700058F925208DF8000003208DF801008DF826
:10118000020001208DF803006846FFF707FE019476
:101190000020ADF80800ADF80A00ADF80C00ADF87D
:1011A00010000C20ADF80E0001A9084800F060F80E
:1011B000012240F22551054800F034F8012103488E
:1011C000FFF7A9FF06B010BD00080140003801403C
:1011D00070B50246002400230025002040F66A1660
:1011E000B14200D100BFC1F3421501F01F03012637
:1011F00006FA03F3012D02D19689334006E0022D51
:1012000002D1168A334001E0968A33400C1201263F
:1012100006FA04F41688344013B10CB1012000E042
:10122000002070BDF0B503460024002600250020F4
:1012300040F66A17B94200D100BF1846C1F3421404
:1012400001F01F06012707FA06F5012C01D10C3029
:1012500004E0022C01D1103000E014301AB107680C
:101260002F43076002E00768AF430760F0BD00004E
:101270002DE9F04786B005460E460024A24600BF81
:10128000A1460027B08900B100BF2F462C8A4CF63A
:10129000FF700440F08804432C82AC894EF6F310B2
:1012A0000440B08831890843718908430443AC8104
:1012B000AC8A4FF6FF400440B0890443AC8201A8D9
:1012C000FFF7CEFD1F48874202D1DDF810A001E0F4
:1012D000DDF80CA0A88900F4004040B10AEBCA0078
:1012E00000EB0A1031684900B0FBF1F807E00AEBA7
:1012F000CA0000EB0A1031688900B0FBF1F86420E5
:10130000B8FBF0F004012009642101FB1089A889D1
:1013100000F4004040B1322000EBC900B0FBF1F016
:1013200000F00700044308E0322000EB09106421BC
:10133000B0FBF1F000F00F0004432C8106B0BDE8D3
:10134000F08700000038014001468888C0F308009B
:101350007047C1F308028280704700BFFEE70000BB
:10136000014A024900F013B8B1130008BC00002084
:1013700002E008C8121F08C1002AFAD1704770475E
:10138000002001E001C1121F002AFBD170472DE9A6
:10139000F04116460F460446002503E03946B047A3
:1013A000641C6D1C20780028F8D12846BDE8F08127
:1013B00070B504460D46E1B20548FFF7CAFF00BF0D
:1013C0000348008800F080000028F9D0204670BD56
:1013D000003801401CB501244FF44070FFF716FDA2
:1013E000FFF7CCFBFFF79CFCFFF74EFA4FF6FF71BF
:1013F0000020FFF719FC1548FFF720FC144803886C
:101400001448028800210846FFF7B8F80620FFF7C5
:10141000DFF94FF4E130FFF78BFE0720FFF714FCF4
:101420000D48012100234A02CDE900100BA10F480D
:1014300001F0F6F90446012C02D100F02BFF02E086
:101440000BA0FFF78DFF00201CBD00003400002022
:101450002600002024000020140000204170705459
:1014600061736B4372656174650000004902000896
:101470004572726F722053746172742052544F53CC
:101480000A0000002DE9F04105460E461C48076899
:101490001C480068001D00F019FD50B9194800688B
:1014A00090F82C100120884017490968814316489C
:1014B0000160681C38B936B112480168091D13482B
:1014C00000F042FD1AE07C190E4800684460BC42FE
:1014D00007D20C480168091D0D48006800F01AFD8C
:1014E0000CE008480168091D0A48006800F012FD78
:1014F00009480068844201D207480460BDE8F081D1
:10150000640000205000002068000020FC03002040
:1015100058000020540000208000002010B5044630
:1015200000F01EFD23480068401C22490860224844
:10153000006840B9204804600846006801280DD1C1
:1015400000F0C4F90AE01D48006838B91A4800687C
:10155000C06AE16A884201D81748046018480068E8
:10156000401C1749086094F82C1001208840154948
:101570000968084313490860E16A01EB8101124AD6
:1015800002EB8100211D00F0DFFC00F0FBFC0B48AA
:10159000006868B108480068C06AE16A884207D2FA
:1015A0004FF0805009490860BFF34F8FBFF36F8F32
:1015B00010BD000060000020500000206C000020E2
:1015C0007C000020680000202C01002004ED00E0D9
:1015D00010B500F0C5FC10480068D0B90F4800F005
:1015E00089FC0F4800F086FC0C480E4908600C4846
:1015F0000D490860002210210A2000F0EFFE064984
:1016000008600846006820B108A10348006800F09F
:10161000F7FC00F0B7FC10BD94000020100400207F
:10162000240400208C00002090000020546D725192
:101630000000000070B523E000F064FE134800686D
:1016400008B9012000E00020054601F0F1FABDB91B
:1016500000F086FC0D48C068C468201D00F036FC10
:101660000B480068401E0A4908600A480068401E8E
:101670000849086000F086FC204600F060F800BFD2
:10168000044800680028D7D170BD0000E80300209E
:10169000600000205C00002070B504460D46206C00
:1016A00070B1216CE0680844E0606168E0688842DD
:1016B00001D32068E0602846226CE168FEF7A0FDB7
:1016C00070BD2DE9F04104460F4615464FF0000865
:1016D000A66B206C40B9206860BB606801F026FAF8
:1016E00080460020606025E07DB93946226CA06804
:1016F000FEF786FD216CA0680844A060D4E90110C3
:10170000884217D32068A06014E03946226CE06854
:10171000FEF776FD216CE068401AE0602168E06821
:10172000884203D2216C6068401AE060022D01D12A
:1017300006B1761E701CA0634046BDE8F08110B56E
:101740000446206B00F02EFC204600F02BFC10BD60
:101750000146084A126812680AB9012200E0002214
:101760000A600A6822B9034A1268D268106800E069
:10177000002070478C00002030B54FF4104317480C
:1017800000F007042CB1C01D20F00700134C041B0F
:101790001B1B0246124C22600024114D6C60D018B5
:1017A000083820F007000F4C206000240D4D2D68F4
:1017B0006C600C4D2D682C601146441A4C60094C2D
:1017C00024680C60084D4C682C60084D4C682C60F7
:1017D0004FF00044064D2C6030BD0000380400205E
:1017E000A0000020A8000020B0000020AC000020D5
:1017F000B400002000BFFFF71DFF06480068012865
:10180000F9D94FF0805004490860BFF34F8FBFF300
:101810006F8FF0E72C01002004ED00E02DE9F0418E
:1018200006460D4617469846069C0DB9246000E012
:101830002760E66325640121204600F099FE002020
:10184000A064BDE8F0812DE9FF5F80460F46914618
:10185000DDE90E6A109CA9F10100216B01EB800B00
:101860002BF0070B002507E0795D04F134004155AA
:10187000785D00B902E06D1C102DF5D300BF00218A
:1018800043200155202E00D31F26E6626664002007
:10189000A064201D00F03BFB04F1180000F037FBB2
:1018A0002461C6F12000A06164620020E06484F835
:1018B000500041465846039A00F0F6FA2060BAF10B
:1018C000000F01D0CAF80040BDE8FF9F10B500240A
:1018D00007E004EB84010F4A02EB810000F00AFBF1
:1018E000641C202CF5D30C4800F004FB0B4800F0DE
:1018F00001FB0B4800F0FEFA0A4800F0FBFA0A4828
:1019000000F0F8FA044809490860044808490860EA
:1019100010BD00002C010020AC030020C0030020FB
:10192000D4030020E8030020FC0300205400002022
:101930005800002010B50146164800E00068036812
:101940008B42FBD30246436813448B4204D1436865
:101950004C682344436001460A464B6813440468BC
:10196000A34211D10C4C03682468A34208D04B68F1
:101970000468646823444B6003681B680B6005E0DF
:10198000054B1B680B6001E003680B60884200D0C8
:10199000016010BDA0000020A80000202DE9F0414A
:1019A00004460D4616461F464FF000086560246148
:1019B000B5420CD8F01BA169884202D34FF0010850
:1019C00011E0211D0948006800F0A4FA0BE0BE42B6
:1019D00004D2BD4202D34FF0010804E0211D0448A7
:1019E000006800F097FA4046BDE8F08190000020C2
:1019F0008C00002070B5054600F0B2FAA86B08B95B
:101A0000012400E0002400F0BDFA204670BD70B54E
:101A1000054600F0A5FAA86BE96B884201D10124C4
:101A200000E0002400F0AEFA204670BD2DE9F3413D
:101A30000D460098846C0027A06BE16B88421BD296
:101A400094F945602A4669462046FFF73AFE074664
:101A5000701C60B9606A08B9012000E0002050B92C
:101A600004F1240001F0A4F828B1012703E0701C60
:101A700040B284F8450000BF3846BDE8FC81000054
:101A8000F8B505460E4610480068C068C468201DB9
:101A900000F01CFAE069012811D1A06941192B4618
:101AA00032462046FFF77AFF48B1002003462A4617
:101AB00001460090204601F04FF9074600BF20463E
:101AC000616A8847F8BD00008C000020F0B587B03F
:101AD00056E00398002805DA04AED6E90020B16884
:101AE000904700BF039800284ADB059C606908B94D
:101AF000012000E0002010B9201D00F0E7F902A845
:101B000000F0A0F8054603980A2837D2DFE800F075
:101B10000905072527320608262800BF00BF00BF99
:101B200000BF0498A269811803462A462046FFF7A1
:101B300035FF88B12046616A8847E06901280BD1EA
:101B4000002000900498A1694218002319462046FD
:101B500001F002F9074600BF11E000BF0FE000BF2F
:101B60000498A061A06941192B462A462046FFF738
:101B700015FF04E0204600F015FA00E000BF00BFAA
:101B800000231A4603A90448006800F043FC00281B
:101B90009FD107B0F0BD000094000020F8B50546C5
:101BA0000C4600F0AFFB684600F04CF80646009883
:101BB00020BB44B9B54206D801F03AF83146284670
:101BC000FFF75EFF1CE03CB10E480068006808B9F2
:101BD000012000E000200446A91B22460A480068B4
:101BE00000F024FA01F024F850B94FF08050074972
:101BF0000860BFF34F8FBFF36F8F01E001F018F85B
:101C0000F8BD0000900000209400002004ED00E0EA
:101C10000A490968096809B9012100E0002121B1D8
:101C20004FF0FF31064A116006E004490968C968AF
:101C3000C868034A416811607047000054000020E2
:101C40008000002070B5044600F08CFE0546074871
:101C50000068854204D200F00BF80120206001E00A
:101C60000020206001480560284670BD9C000020CF
:101C70002DE9F84326E01D480068C06805681B4848
:101C80000068C068C468201D00F020F92046616A21
:101C90008847E069012815D1A0694619AE4207D9E5
:101CA00066602461211D1148006800F033F909E0E5
:101CB000002003462A4601460090204601F04CF8D9
:101CC000804600BF09480068006808B9012000E0AC
:101CD00000200028CFD00548076805480068034960
:101CE000086003480760BDE8F88300008C0000200E
:101CF0009000002000BF502080F31188BFF34F8F69
:101D0000BFF36F8F00BF00BFFEE708B500BF684696
:101D1000FFF71EFD044620460099FFF73FFFFFF73F
:101D2000D5FEF4E770B5044600F01AF994F9455071
:101D30001AE0A06C38B100212046FFF777FE88B189
:101D400000F01AFA0EE0606A08B9012000E00020F5
:101D500038B904F1240000F02BFF18B100F00CFAA0
:101D600000E003E0681E45B2002DE2DC00BFFF206A
:101D700084F8450000F006F900F0F2F894F94450B8
:101D800010E0206908B9012000E0002048B904F102
:101D9000100000F00DFF08B100F0EEF9681E45B22A
:101DA00000E001E0002DECDC00BFFF2084F84400DF
:101DB00000F0E8F870BD00002DE9F04105464FF055
:101DC000000800F09FFA2B48006808B9FFF7D4FC20
:101DD000294800682840002847D145B1083505F05A
:101DE000070020B105F00700C0F108000544002DF0
:101DF0003BD022480068854237D8214E30460468DF
:101E000001E0264624686068A84202D220680028C3
:101E1000F7D118480068844227D0306800F10808DC
:101E2000206830606068401B102807D96719606817
:101E3000401B786065603846FFF77CFD0F4960689D
:101E40000968081A0D490860084600680D490968C4
:101E5000884203D2094800680A4908600649606858
:101E60000968084360600020206000F0E1FE404601
:101E7000BDE8F081A8000020B4000020AC000020E4
:101E8000A0000020B00000200648006830B10549DD
:101E9000096801F14800896C491C0160014800682B
:101EA0007047000050000020001F4FF08073036057
:101EB000001F21F001030360001F034B036014386F
:101EC0000260203870470000F51C000801460A69CE
:101ED000D1E901309860D1E9010358605068884227
:101EE00001D188685060002008611068401E1060B1
:101EF0001068704700F1080141604FF0FF318160C8
:101F000000F10801C16001610021016070470021FA
:101F10000161704710B502460B685C1C0CB9106972
:101F200007E002F1080000E04068446824689C4231
:101F3000FAD944684C604C68A160886041600A61CD
:101F40001468641C146010BD42684A6093688B601A
:101F5000936859609160086103685B1C0360704777
:101F600000BF502080F31188BFF34F8FBFF36F8FF6
:101F700000BF03480068401C01490860704700002A
:101F8000B800002006480068401E05490860084661
:101F9000006820B9002080F3118800BF00BF70479F
:101FA000B800002070B506463546D6B1083D2C462F
:101FB0000C4960680968084098B1206888B90949E7
:101FC000606809688843606000F09CF906496068B1
:101FD00009680844044908602046FFF7ABFC00F09C
:101FE00027FE70BDB4000020AC00002003484FF075
:101FF000E021486107200861704700003F19010097
:10200000024600200BE0084B53F8303033B9064B42
:1020100043F8301003EBC0035A6002E0401C0A286A
:10202000F1D300BF70470000DC0000202DE9F04133
:1020300005460E4617462C46FFF792FF94F94400DA
:10204000401C10B9002084F8440094F94500401C5D
:1020500010B9002084F84500FFF794FFA06B28B961
:102060003A46314604F1240000F09CF82046FFF780
:1020700059FEBDE8F081000070B50446002544B16A
:1020800000F040F900212046FFF7FCF900F0D0FDF8
:1020900005463DB94FF0805003490860BFF34F8FAC
:1020A000BFF36F8F70BD000004ED00E070B5054612
:1020B000FFF756FF15B92748006800E02846044698
:1020C000201DFFF703FF78B9E06A00EB800022498A
:1020D00051F8200040B994F82C10012088401F4985
:1020E000096881431D480160A06A18B104F1180015
:1020F000FFF7ECFE1A480068401C194908601548B3
:102100000068844209D1211D1648FFF71DFF1648BB
:102110000068401C1449086009E014480068401E2B
:10212000124908602046FFF70AFBFFF771FDFFF731
:1021300029FF0F48006858B106480068844207D15B
:102140004FF080500B490860BFF34F8FBFF36F8F84
:1021500070BD0000500000202C010020680000200D
:102160007C000020E80300205C00002060000020CC
:102170006C00002004ED00E0012001490860704778
:102180007400002070B505460C46054801681831FA
:102190002846FFF7BFFE01212046FFF773F970BD07
:1021A0005000002070B506460D46144606480168EA
:1021B00018313046FFF7C8FE0CB14FF0FF3521460D
:1021C0002846FFF75FF970BD5000002070B5054646
:1021D0002C46002D4BD02649E06A0968C96A88421E
:1021E00045D2A06900F0004028B921480068C06AC3
:1021F000C0F12000A061E16A01EB81011D4A02EB00
:1022000081016069884201D1012000E0002050B3C3
:10221000201DFFF75BFE78B9E06A00EB80001549EE
:1022200051F8200040B994F82C1001208840124940
:1022300009688143104801600D480068C06AE06287
:1022400094F82C10012088400B49096808430A497A
:102250000860E16A01EB8101064A02EB8100211D61
:10226000FFF772FE03E002480068C06AE06270BDDA
:10227000500000202C01002068000020034909685C
:102280000160034909684160704700007800002040
:10229000640000201CB5144800210B468022CDE9C3
:1022A000001012A1134800F0BBFA0446012C02D121
:1022B00000F032FD0446012C14D100BF502080F301
:1022C0001188BFF34F8FBFF36F8F00BF4FF0FF3008
:1022D0000949086001200949086000200849086090
:1022E00000F048F81CBD00008400002049444C4523
:1022F00000000000F5170008800000206C0000209E
:102300006400002002480068401C014908607047D2
:10231000880000201248006818B1012011490860A7
:102320001DE000200F4908600F480068B0FA80F0F7
:10233000C0F11F0101EB81020C4B03EB82004268EC
:102340005268426000F108024368934202D1426839
:10235000526842604268D268054B1A6000BF7047FD
:102360008800002074000020680000202C0100205C
:102370005000002010B50A48006840F47000084979
:1023800008600846006840F070400860FFF72EFEC5
:10239000002004490860FDF7E7FE002010BD0000A2
:1023A00020ED00E0B800002010B500BF502080F301
:1023B0001188BFF34F8FBFF36F8F00BF00F0D8FAC3
:1023C00018B14FF080500449086000BF002080F32E
:1023D000118800BF10BD000004ED00E02DE9F843B6
:1023E00007460D4690460DB9002601E007FB05F6AD
:1023F00006F14C00FFF7E0FC044644B104F14C093F
:1024000043464A46294638460094FFF707FA2046D5
:10241000BDE8F8832DE9FF4782B0054689461E4690
:102420004FF0000A2C4600BFFFF79AFDD4F8388021
:10243000B8F1000F3BD0E76849462046FFF72CF97A
:10244000DEB9A8F10100A063206810B9FFF71CFDF8
:102450006060206908B9012000E0002008BB04F199
:10246000100000F0A5FBE0B14FF080503F4908603C
:10247000BFF34F8FBFF36F8F13E0E760606A08B957
:10248000012000E0002060B904F1240000F090FB7E
:1024900038B14FF0805035490860BFF34F8FBFF31C
:1024A0006F8FFFF76FFD012006B0BDE8F08704983D
:1024B00018B9FFF767FD0020F6E7BAF1000F04D165
:1024C0006846FFF7DBFE4FF0010AFFF75BFDFFF701
:1024D00019FFFFF745FD94F94400401C10B9002096
:1024E00084F8440094F94500401C10B9002084F899
:1024F0004500FFF747FD04A9684600F063F940BBBB
:102500002046FFF777FAF0B1206830B9FFF728FDD1
:102510006068FFF75BFEFFF735FD04F124000499C6
:10252000FFF730FE2046FFF7FDFB00F081FB00289F
:102530007FF47AAF4FF080500C490860BFF34F8FA3
:10254000BFF36F8F70E72046FFF7ECFB00F070FBE6
:102550006AE72046FFF7E6FB00F06AFB2046FFF73C
:1025600049FA0028EED000209EE7000004ED00E0CC
:1025700070B505460E462C46FFF7F2FCD4E90F1263
:10258000206801FB020060600020A0632068A0605A
:10259000E06B401E226C216800FB0210E060FF200F
:1025A00084F8440084F845009EB9206908B90120E8
:1025B00000E00020A8B904F1100000F0F9FA80B1A1
:1025C0004FF0805009490860BFF34F8FBFF36F8F02
:1025D00007E004F11000FFF78DFC04F12400FFF781
:1025E00089FCFFF7CFFC012070BD000004ED00E086
:1025F0002DE9FF4383B0074688461D464FF000098A
:102600003C4600BFFFF7ACFCA06BE16B884201D3F6
:10261000022D38D12A4641462046FFF752F8064699
:10262000A06C68B129462046FFF700FA28B34FF0A6
:1026300080503C490860BFF34F8FBFF36F8F1CE0A1
:10264000606A08B9012000E0002068B904F12400A4
:1026500000F0AEFA88B14FF0805032490860BFF305
:102660004F8FBFF36F8F08E03EB14FF080502D4980
:102670000860BFF34F8FBFF36F8FFFF783FC01201C
:1026800007B0BDE8F083059818B9FFF77BFC002080
:10269000F6E7B9F1000F04D101A8FFF7EFFD4FF005
:1026A0000109FFF76FFCFFF72DFEFFF759FC94F9C6
:1026B0004400401C10B9002084F8440094F94500FF
:1026C000401C10B9002084F84500FFF75BFC05A909
:1026D00001A800F077F8F0B92046FFF798F9A0B10B
:1026E00004F110000599FFF74DFD2046FFF71AFB96
:1026F00000F09EFA002885D14FF08050094908600B
:10270000BFF34F8FBFF36F8F7CE72046FFF70AFBC5
:1027100000F08EFA76E72046FFF704FB00F088FA17
:102720000020ADE704ED00E02DE9F05F06468A46A3
:1027300015461F46344600BF5021EFF3118081F348
:102740001188BFF34F8FBFF36F8F00BF8146A06B1F
:10275000E16B884201D3022F2BD194F945B03A4660
:1027600051462046FEF7ADFF0BF10100C8B9A06C41
:1027700040B139462046FFF759F9B8B1B5B101204B
:10278000286013E0606A08B9012000E0002068B901
:1027900004F1240000F00CFA40B13DB101202860A2
:1027A00004E00BF1010040B284F845004FF001084D
:1027B00001E04FF0000800BF89F3118800BF4046D8
:1027C000BDE8F09F70B504460D46FFF7C9FB1248FF
:1027D00002682868401C08B9002619E00F492068E3
:1027E0000968884204D06068904201D801260FE051
:1027F0006068101A2968884209D228686168511AED
:10280000401A28602046FFF739FD002600E0012627
:10281000FFF7B8FB304670BD640000207800002050
:102820002DE9FF4F85B0804689461746DDE912AB9A
:10283000B800FFF7C1FA064656B15420FFF7BCFABC
:1028400004460CB1266304E03046FFF7ABFB00E022
:1028500000247CB10020CDE900ABCDE902403A462E
:1028600049464046089BFEF7EEFF2046FEF756FE1F
:10287000012501E04FF0FF35284609B0BDE8F08F93
:102880002DE9F04781460D4616461F464FF0010AD6
:102890004C46FFF765FB0FB1E06C386094F8508050
:1028A000022084F85000052E17D2DFE806F0150349
:1028B000070B0D00E06C2843E0640EE0E06C401C68
:1028C000E0640AE0E56408E0B8F1020F01D0E564D5
:1028D00001E04FF0000A00E000BF00BFB8F1010FB7
:1028E00022D1201DFFF7F2FA94F82C100120884025
:1028F0001049096808430F490860E16A01EB81014A
:102900000D4A02EB8100211DFFF71EFB0B49E06A17
:102910000968C96A884207D94FF0805008490860A1
:10292000BFF34F8FBFF36F8FFFF72CFB5046BDE80F
:10293000F0870000680000202C01002050000020DB
:1029400004ED00E00549096809B9012005E00449E2
:10295000096809B9022000E0002070476C000020DF
:1029600088000020014908687047000064000020CA
:102970002DE9F04100273A480068002863D1394822
:102980000068451C374805608DB93748D0F800808D
:1029900036480068344908603448C0F8008034483C
:1029A0000068401C32490860FFF732F900BF314827
:1029B000006885423BD300BF2B480068006808B917
:1029C000012000E0002020B14FF0FF3029490860CD
:1029D0002CE025480068C068C4686668B54202D229
:1029E0002448066022E0201DFFF770FAA06A18B1A3
:1029F00004F11800FFF76AFA94F82C1001208840BF
:102A00001D49096808431C490860E16A01EB81011E
:102A10001A4A02EB8100211DFFF796FA1849E06A75
:102A20000968C96A8842C7D30127C5E700BF1448AF
:102A30000068C06A00EB8000104951F820000128AE
:102A400000D9012704E00F480068401C0D490860C8
:102A50000D48006800B101273846BDE8F08100004C
:102A6000880000206400002054000020580000204E
:102A70007800002080000020680000202C01002049
:102A80005000002070000020740000202DE9F0416B
:102A90000746884614461D46FFF762FA214800683B
:102AA00090F85000022818D01E49096801F14C0026
:102AB000C96CB943016001201A49096881F85000C6
:102AC0005DB101212846FEF7DDFC4FF0805016492C
:102AD0000860BFF34F8FBFF36F8FFFF753FAFFF715
:102AE0003FFA1CB10F480068C06C20600D480068B8
:102AF00090F85000012801D1002608E00949096832
:102B000001F14C00C96C21EA080101600126002096
:102B10000449096881F85000FFF734FA3046BDE8EF
:102B2000F08100005000002004ED00E070B5054683
:102B30002C460026ADB3A06C401EA064616CE06A18
:102B400088422ED0A06C60BB201DFFF7BFF978B97A
:102B5000E06A00EB8000144951F8200040B994F875
:102B60002C10012088401149096881430F480160F9
:102B7000606CE062E06AC0F12000A06194F82C1063
:102B80000120884009490968084308490860E16A4A
:102B900001EB8101044A02EB8100211DFFF7D4F90A
:102BA0000126304670BD00002C0100206800002086
:102BB00070B50646F068C46804F11800FFF786F99E
:102BC00015480068A8B9201DFFF780F994F82C106B
:102BD0000120884011490968084310490860E16AEA
:102BE00001EB81010E4A02EB8100211DFFF7ACF9D8
:102BF00004E004F118010B48FFF7A6F90A49E06A5E
:102C00000968C96A884204D901250120074908607A
:102C100000E00025284670BD8800002068000020E4
:102C20002C010020D403002050000020740000205C
:102C300070B500240026FFF793F92E480068401E67
:102C40002C4908600846006800284FD12A480068CF
:102C500000284BD024E02948C068C46804F118005B
:102C6000FFF734F9201DFFF731F994F82C100120FB
:102C7000884023490968084321490860E16A01EB5B
:102C80008101204A02EB8100211DFFF75DF91E49F9
:102C9000E06A0968C96A884202D301201B490860BA
:102CA0001648006808B9012000E000200028D2D0B2
:102CB0000CB1FEF7ADFF1648056865B100BFFFF720
:102CC00057FE10B10120114908606D1E002DF6D18C
:102CD00000200F4908600D48006838B10126300710
:102CE0000C490860BFF34F8FBFF36F8FFFF74AF9AE
:102CF000304670BD8800002060000020D403002012
:102D0000680000202C0100205000002074000020EA
:102D10007000002004ED00E01CB50024FEF758FC14
:102D20000848006858B108481F2100234FF48072FA
:102D3000CDE9001005A10748FFF772FD04462046C3
:102D40001CBD00009400002098000020546D7220EB
:102D5000537663000B1D00082DE9FF4705460C461E
:102D600016461F46DDF830804FF000091448006811
:102D700010B3009401960295062C15DAFFF7E2FDD8
:102D8000022808D10023424669460D480068FFF733
:102D90002FFC814610E000231A4669460848006867
:102DA000FFF726FC814607E000233A4669460448BF
:102DB0000068FFF7B9FC8146484604B0BDE8F087DB
:102DC000940000200000000000000000000000004F
:102DD0000000000000000018181818181808000853
:102DE000180000000000003424242400000000002B
:102DF000000000000000000016247F2424247E240C
:102E000024000000000000083E6848681C161212EA
:102E10007C10100000000061D29674081016294939
:102E2000C6000000000000003C646438724ACE46D0
:102E30007F000000000000181818180000000000B3
:102E4000000000000000000408181030303030107E
:102E500010180C04000000201008080C0404040CD6
:102E600008181020000000080A341C6A080000003E
:102E7000000000000000000000001818187F18185B
:102E80001800000000000000000000000000001812
:102E9000180830000000000000000000003C0000A6
:102EA000000000000000000000000000000000180A
:102EB000180000000000000206040C080810102092
:102EC00020400000000000003C6642475B73426601
:102ED0003C000000000000001878480808080808B6
:102EE0007E000000000000003C460606040810209A
:102EF0007E000000000000007C0606043C02020682
:102F00007C000000000000000C1C14246444FF043A
:102F100004000000000000007E6060607E02020687
:102F20007C000000000000001E30604876424262D3
:102F30003C000000000000007E0206040C0818108F
:102F400030000000000000003C6242361C66424235
:102F50003C000000000000003C664242661A020489
:102F600078000000000000000000181800000018A1
:102F700018000000000000000000181800000018F1
:102F80001808300000000000000004183060100C29
:102F90000600000000000000000000007E007E002F
:102FA00000000000000000000000301804060C10B3
:102FB00020000000000000301C060606181000105B
:102FC000100000000000001C224141DDB5A5A5AFA6
:102FD00094C0403C00000000181C342426627E434C
:102FE000C1000000000000007C4642467C42424294
:102FF0007C000000000000001E2040404040406077
:103000003E000000000000007C464243434342462D
:1030100078000000000000007E6060607E606060FC
:103020007E000000000000007E6060607E606060E6
:1030300060000000000000001E604040CE4242627E
:103040003E00000000000000424242427E424242F6
:1030500042000000000000007E1818181818181808
:103060007E000000000000007C040404040404440A
:1030700078000000000000004244485070584C4462
:1030800042000000000000002020202020202020FE
:103090003E000000000000006266675F5B5BC1C12C
:1030A000C100000000000000626272525A4A4E469F
:1030B00046000000000000003C6243C3C3C34362FB
:1030C0003C000000000000007C4642424678404040
:1030D00040000000000000003C6243C3C3C34362E1
:1030E0003C180F00000000007C6662667C6C646621
:1030F00062000000000000003E6040601C0602020A
:103100007C000000000000007F181818181818181C
:103110001800000000000000424242424242426267
:103120003C00000000000000C14342622624341C21
:103130001800000000000000C1C141495B5B7666D9
:10314000660000000000000043663418181C246666
:10315000C300000000000000C14266341C181818AB
:1031600018000000000000007E02040C181020600F
:103170007E0000000000001C101010101010101035
:103180001010101C000000402020101008080C0433
:10319000060200000000003C0C0C0C0C0C0C0C0C8B
:1031A0000C0C0C3C00000000181C24620000000005
:1031B000000000000000000000000000000000000F
:1031C000000000FF000000201000000000000000D0
:1031D000000000000000000000003C06023E4246E5
:1031E0007A0000000000004040405C6242424242DF
:1031F0007C0000000000000000001E2060406020F5
:103200003E0000000000000202023E6242424266AE
:103210003A0000000000000000003C62427E406076
:103220003E0000000000000F1810107E101010105B
:10323000100000000000000000003F664266584099
:103240003E43423C0000004040405C6242424242F9
:10325000420000000000001818007808080808085C
:103260007E000000000000040C007C040404040440
:1032700004040C78000000606060626C7870686420
:103280006200000000000078080808080808080824
:103290007E000000000000000000764B4B4B4B4BC3
:1032A0004B0000000000000000005C62424242420D
:1032B000420000000000000000003C624243426205
:1032C0003C0000000000000000005C6242424242FC
:1032D0007C4040400000000000003E6242424266E6
:1032E0003A0202020000000000006E72636060603B
:1032F000600000000000000000003E20203C0602AC
:103300007C000000000000001010FE1010101010D3
:103310001E000000000000000000424242424266DF
:103320003A00000000000000000043426624341808
:1033300018000000000000000000C1C15B5A5E667A
:103340006600000000000000000062261C181C2619
:103350006200000000000000000043426624341CAC
:10336000181830E00000000000007E060C18102045
:103370007E0000000000000E1810101030701010B9
:103380001010180E000008080808080808080808A7
:103390000808080800000030180808080C0E080883
:1033A000080818300000000000000000714B060003
:1033B000000000000000000000000000000000000D
:1033C00000000000000000000000000000000000FD
:1033D00000000000000000000000000000000000ED
:1033E000000000000000000000000000000003805A
:1033F00001800180018001800180018001800180C5
:1034000001800000000003C003C0000000000000B5
:1034100000000000000000000000000000000E702E
:103420000E700E700C300000000000000000000064
:10343000000000000000000000000000000000008C
:10344000000000000000000000000000000000007C
:103450000618063806307FFE0C300C300C300C306D
:103460007FFE0C601C601860186000000000000007
:1034700000000000000000000000000000C000C0CC
:103480000FF83CC831C031803D801F8003F001F847
:10349000031C030C031C3FF83FE00700060000007C
:1034A0000000000000000000000000001C007E0E74
:1034B000630C631863307E6000C001800300077CEA
:1034C0000EE61CC618C630C6607C00000000000076
:1034D00000000000000000000000000000000FE0FD
:1034E0001CF0387038701C601FC00F003F8C71CC0E
:1034F00060EC607C70383CFC1FCE000000000000D7
:10350000000000000000000000000000000003C0F8
:103510000180018001800000000000000000000028
:10352000000000000000000000000000000000009B
:10353000000000000000000000000000003000E07B
:1035400001C0018003000700060006000E000E0007
:103550000E000E00060007000300038001C000E01B
:103560000030000000000000000000000C00060019
:103570000380018001C000E0006000600070007006
:1035800000700060006000E000C001800380060061
:103590000C0000000000000000000000000001809E
:1035A00011881DB803C007E03DBC01880180000000
:1035B000000000000000000000000000000000000B
:1035C00000000000000000000000000000000000FB
:1035D00000000000018001800180018001807FFEE9
:1035E00001800180018001800000000000000000D7
:1035F00000000000000000000000000000000000CB
:1036000000000000000000000000000000000000BA
:103610000000000003C003C001C001C003801F0000
:10362000000000000000000000000000000000009A
:1036300000000000000000000000000000000FF08B
:10364000000000000000000000000000000000007A
:10365000000000000000000000000000000000006A
:10366000000000000000000000000000000000005A
:103670000000000003C003C003C000000000000001
:103680000000000000000000000000000000001822
:1036900000380030006000E000C001C0018003007D
:1036A000030006000E000C001C0018003000000093
:1036B0000000000000000000000000000000018089
:1036C0000FF01C38381C301C707E70EE738E7E0E2E
:1036D0007C0C300C381C1E780FE00000000000004D
:1036E00000000000000000000000000000000000DA
:1036F00007C01FC039C001C001C001C001C001C066
:1037000001C001C001C03FFC3FFC00000000000000
:103710000000000000000000000000000000038026
:103720001FF018380038001800380038007001E029
:10373000038007001C003FFC3FFC0000000000006D
:1037400000000000000000000000000000000780F2
:103750001FF0003800380038003007E007F000386C
:10376000001C001C001820F83FE0000000000000D2
:103770000000000000000000000000000000000049
:1037800000F001B0033007300E301C30383070309C
:103790007FFE7FFE0030003000300000000000009F
:1037A0000000000000000000000000000000000019
:1037B0001FF818001800180018001FE000F8001C7F
:1037C000001C001C003800F01FC0000000000000BA
:1037D00000000000000000000000000000000000E9
:1037E00003F80F001C001800300037F83C3C300C88
:1037F000300C380C381C1E380FF0000000000000A0
:1038000000000000000000000000000000000000B8
:103810003FFC001C001800380070006000E001C090
:1038200001800380070006000E0000000000000079
:10383000000000000000000000000000000003C0C5
:103840001FF8381C381C381C1C380FF007F01C7887
:10385000381C300C381C3C380FF000000000000011
:1038600000000000000000000000000000000380D5
:103870001FF03838301C701C700C380C1FFC0FCC3B
:10388000001C001800701FE01F80000000000000F6
:103890000000000000000000000000000000000028
:1038A00000000000000003C003C001800000000011
:1038B0000000000003C003C003C0000000000000BF
:1038C00000000000000000000000000000000000F8
:1038D00000000000000003C003C0018000000000E1
:1038E0000000000003C003C001C001C003800F003E
:1038F00000000000000000000000000000000000C8
:1039000000000000003800F001C007001E00380071
:103910000E00078001C000700030000000000000B1
:103920000000000000000000000000000000000097
:10393000000000000000000000003FFC000000004C
:103940003FFC3FFC00000000000000000000000001
:103950000000000000000000000000000000000067
:10396000000000001C000F00038001E00078001C34
:10397000007001E003800E000C0000000000000059
:1039800000000000000000000000000000000FC068
:1039900000F0003800380038003803F003800300DE
:1039A0000300000000000780078000000000000006
:1039B00000000000000000000000000000E007F828
:1039C0000C0C18063006700363F36633C673CC63C1
:1039D000CC62CC66CCE6C7FCE0006000700038101A
:1039E0001FF00000000000000000000000000000C8
:1039F00003C007E006E00E700E700C301C3818187B
:103A00003FFC3FFC700E600EE0070000000000006D
:103A100000000000000000000000000000000000A6
:103A20003FF03838381C381C38383FF03FF8381C25
:103A3000380C380C381C3FF83FE000000000000054
:103A4000000000000000000000000000000000E096
:103A500007FC1E0438003800300070007000700051
:103A6000300038003C001F9C07FC000000000000F4
:103A70000000000000000000000000000000000046
:103A80003FF03078301C300C300E300E300E300EDF
:103A9000300E301C30383FF03FC000000000000006
:103AA0000000000000000000000000000000000016
:103AB0001FF818001800180018001FF81FF8180049
:103AC0001800180018001FF81FF800000000000080
:103AD00000000000000000000000000000000000E6
:103AE0001FF818001800180018001FF81FF8180019
:103AF000180018001800180018000000000000004E
:103B0000000000000000000000000000000000F0C5
:103B100007FC1E04380030007000700070FC700C50
:103B2000700C300C380C1F1C07FC0000000000005B
:103B30000000000000000000000000000000000085
:103B4000300C300C300C300C300C3FFC3FFC300C97
:103B5000300C300C300C300C300C00000000000039
:103B60000000000000000000000000000000000055
:103B70003FFC018001800180018001800180018083
:103B80000180018001803FFC3FFC0000000000003C
:103B90000000000000000000000000000000000025
:103BA0001FF00030003000300030003000300030B6
:103BB0000030003000701DE01FC000000000000059
:103BC00000000000000000000000000000000000F5
:103BD000381C387038E039C03B803F003F003B80E4
:103BE00039C038E038703838381C00000000000058
:103BF00000000000000000000000000000000000C5
:103C00001C001C001C001C001C001C001C001C00D4
:103C10001C001C001C001FFC1FFC0000000000001A
:103C20000000000000000000000000000000000094
:103C3000381C7C3C6C3E6E6E666E66CE63C66386D8
:103C400061866006600660066006000000000000F5
:103C50000000000000000000000000000000000064
:103C60003C0C3C0C3E0C360C330C338C318C31CC80
:103C700030EC306C307C303C301C00000000000028
:103C8000000000000000000000000000000001C073
:103C90000FF81C3C381C700E700E60066006700E2B
:103CA000700E700C381C1E780FE000000000000041
:103CB0000000000000000000000000000000000004
:103CC0003FF0383C381C380C380C381C38783FE052
:103CD00038003800380038003800000000000000CC
:103CE000000000000000000000000000000001C013
:103CF0000FF81C3C381C700E700E60066006700ECB
:103D0000700E700C381C1E780FE0018001C000FF9F
:103D1000003C000000000000000000000000000067
:103D20003FF0383838183818383838F03FC038E0A5
:103D3000387038383838381C380E00000000000061
:103D4000000000000000000000000000000001E092
:103D50000FF83800380038003C001F8003F000786E
:103D6000001C001C001C38783FE000000000000030
:103D70000000000000000000000000000000000043
:103D80007FFE01800180018001800180018001802F
:103D9000018001800180018001800000000000009E
:103DA0000000000000000000000000000000000013
:103DB000300C300C300C300C300C300C300C300C23
:103DC000300C300C381C1C380FF0000000000000D4
:103DD00000000000000000000000000000000000E3
:103DE000E006700E700E381C381C1C181C380C3085
:103DF0000E70066007E003C003C000000000000072
:103E000000000000000000000000000000000000B2
:103E100060066006600660066186638673C673CEC0
:103E2000766C366C3C3C3C3C381C000000000000CA
:103E30000000000000000000000000000000000082
:103E4000301C38181C380E7007E003C003C007E0B0
:103E50000E701C381838381C700E0000000000006E
:103E60000000000000000000000000000000000052
:103E7000700E700C381C1C380E70066007E003C012
:103E800001800180018001800180000000000000AD
:103E90000000000000000000000000000000000022
:103EA0003FFC001C0038007000E001C003800700E8
:103EB0000E000C0018003FFC3FFC0000000000005A
:103EC00000000000000000000000000007F007F004
:103ED00006000600060006000600060006000600B2
:103EE00006000600060006000600060006000600A2
:103EF00007F00000000000000000000000001800B3
:103F00001C000C000600070003000380018001C0B4
:103F100000C000600070003000380018000C000085
:103F20000000000000000000000000000FE00FE0B3
:103F30000060006000600060006000600060006081
:103F40000060006000600060006000600060006071
:103F50000FE0000000000000000000000000000072
:103F600003C006C006600C301818301C00000000AA
:103F70000000000000000000000000000000000041
:103F80000000000000000000000000000000000031
:103F90000000000000000000000000000000000021
:103FA0000000000000000000000000000000000011
:103FB000FFFF0000000000000000000000001E00E5
:103FC000038000000000000000000000000000006E
:103FD00000000000000000000000000000000000E1
:103FE00000000000000000000000000000000000D1
:103FF0000000000000001FF01038001C001C0FFC27
:104000001C1C381C381C3CFC1FDC0000000000009D
:104010000000000000000000000000000000380068
:104020003800380038003BF83E1C3C1C380C380C7B
:10403000380C380C381C3C781FE0000000000000F1
:104040000000000000000000000000000000000070
:1040500000000000000007F80E001C0038003800C7
:10406000380038001C000F1807F80000000000009E
:104070000000000000000000000000000000001C24
:10408000001C001C001C0FFC1C1C381C301C301CAD
:10409000301C301C383C1CFC0F9C00000000000051
:1040A0000000000000000000000000000000000010
:1040B0000000000000000FF01C38381C300C3FFCE2
:1040C0003000300038001E0C07FC0000000000002B
:1040D000000000000000000000000000003C01FEA5
:1040E00003800300030003007FFC7FFC0300030048
:1040F00003000300030003000300000000000000B1
:1041000000000000000000000000000000000000AF
:104110000000000000000FFE1C383818381818384E
:104120001FF03B8030003FF01FFC300E700E381C3B
:104130001FF8000000000000000000000000380030
:104140003800380038003BF83E383C1C381C381C1E
:10415000381C381C381C381C381C000000000000BB
:10416000000000000000000000000000018003C00B
:1041700003C0000000001FC001C001C001C001C099
:1041800001C001C001C001C03FFC000000000000F0
:10419000000000000000000000000000002000708F
:1041A0000070000000003FF00070007000700070B0
:1041B000007000700070007000700070007020E0EF
:1041C0003FC00000000000000000000000001800D8
:1041D000180018001800183C187018E01B801F0009
:1041E0001B8019E018701838181C0000000000002F
:1041F00000000000000000000000000000001FC0E0
:1042000001C001C001C001C001C001C001C001C0A6
:1042100001C001C001C001C03FFC0000000000005F
:10422000000000000000000000000000000000008E
:104230000000000000006F3C79EE71CE718E718E2F
:10424000718E718E718E718E718E00000000000073
:10425000000000000000000000000000000000005E
:104260000000000000003BF83E383C1C381C381CA5
:10427000381C381C381C381C381C0000000000009A
:10428000000000000000000000000000000000002E
:104290000000000000000FF01C3C381C700E700E77
:1042A000700E700C381C1E780FE00000000000003B
:1042B00000000000000000000000000000000000FE
:1042C0000000000000003BF83E1C3C1C380C380C81
:1042D000380C380C381C3C783FE038003800380087
:1042E0003800000000000000000000000000000096
:1042F0000000000000000FFC1C1C381C301C301C8F
:10430000301C301C383C1CFC0F9C001C001C001C8A
:10431000001C000000000000000000000000000081
:1043200000000000000019F81F1C1C0C180E1800DB
:104330001800180018001800180000000000000005
:10434000000000000000000000000000000000006D
:104350000000000000000FF81C0018001E000FC035
:1043600001F80018001818381FF0000000000000C5
:10437000000000000000000000000000000000003D
:104380000600060006007FFC060006000600060088
:10439000060006000700078401FC00000000000082
:1043A000000000000000000000000000000000000D
:1043B000000000000000381C381C381C381C381C59
:1043C000381C381C383C1CFC0FDC000000000000CE
:1043D00000000000000000000000000000000000DD
:1043E000000000000000700C381C38181C380C301D
:1043F0000E70066007E003C003C00000000000006C
:1044000000000000000000000000000000000000AC
:10441000000000000000600660066186738E73CCA9
:1044200033CC366C366C3C3C3C380000000000005D
:10443000000000000000000000000000000000007C
:10444000000000000000381C1C380E7007E003C09C
:1044500003C007E00E701C38381E0000000000008A
:10446000000000000000000000000000000000004C
:10447000000000000000700C381C38181C380C308C
:104480000E70066007E003C003C0038007000E0043
:104490007C000000000000000000000000000000A0
:1044A0000000000000001FF80038007000E001C0AC
:1044B000038007000C001FFC3FFC00000000000010
:1044C000000000000000000000000000007801F87B
:1044D0000380038003800380038003003F003E00CD
:1044E000030003800380038003800380038001C0F6
:1044F00000F80000000000000180018001800180C0
:1045000001800180018001800180018001800180A3
:104510000180018001800180018001800180018093
:104520000180000000000000000000001E001F804D
:10453000018001C001C001C001C000C000FC007CBE
:1045400000C001C001C001C001C001C001C00380A2
:104550001F0000000000000000000000000000003C
:10456000000000000000000000001C003F0671CEAB
:1045700060FC0000000000000000000000000000DF
:10458000000000000000000000000000000000002B
:10459000000000000000000000000000000000001B
:1045A000000000000000000000000000000000000B
:1045B00000000000000000000000000000000000FB
:1045C00000000000000000000000000000000000EB
:1045D00000000000000000000000000000000000DB
:1045E00000000000000000000000000000000000CB
:1045F000000000000000003C00003C00003C000007
:104600003C00003C00003C00003C00003C00003C42
:1046100000003C00003C00003C00003C00003C006E
:10462000000000000000003C00007E00003C000094
:10463000000000000000000000000000000000007A
:10464000000000000000000000000000000000006A
:1046500000000000000003C3E003C3E003C3C00385
:10466000C3C003C3C003C3C003C1C0000000000037
:10467000000000000000000000000000000000003A
:10468000000000000000000000000000000000002A
:10469000000000000000000000000000000000001A
:1046A000000000000000000000000000000000000A
:1046B00000000000000000000000000001E0E00138
:1046C000C0E001C0E001C0E03FFFFE3FFFFE03C1CC
:1046D000C00381C00381C00381C07FFFFC7FFFFC5A
:1046E0000783800703800703800703800707800094
:1046F00000000000000000000000000000000000BA
:1047000000000000000000000000000000000000A9
:10471000000000000700000F00000E0001FFF0077E
:10472000FFF01F0E001E1E001E1C001E1C000FDCD2
:104730000007FC0000FF80003FF00038F8003878E8
:1047400000783C0070783071F83FFFE01FFF0000F8
:10475000E00000E00000E0000000000000000000B9
:104760000000000000000000000000000000000049
:104770000000000000000F800F3FE01E78703C70CA
:1047800070707070E07071C03FE3801FC700000E52
:1047900000001C0000780000F0F001E7FC03CF0EE1
:1047A000078E0E0F0E0E1E0E0E3C07BC7003F80097
:1047B00000000000000000000000000000000000F9
:1047C00000000000000000000000000000000000E9
:1047D00000000000000000000001FF0007FF800F44
:1047E00003C00F03C00F03C00F0780079F0003FE25
:1047F0000003F0000FF83C3E7C3C3C1F3C780FF877
:104800007807F87C01F03E03F81FFFFC07FE1F004D
:104810000000000000000000000000000000000098
:104820000000000000000000000000000000000088
:10483000000000000000003E00003C00003C0000C2
:104840003C00003C00003C00003C00000000000078
:104850000000000000000000000000000000000058
:104860000000000000000000000000000000000048
:104870000000000000000000000000000000000038
:104880000000000000000000000000000000000028
:104890000000000000800001C0000780000F000041
:1048A0001E00003C0000780000F00000E00001E085
:1048B0000001E00001C00003C00003C00001C0000F
:1048C00001E00001E00000F00000F00000780000CE
:1048D0003C00001E00000F000007C00001C00000E7
:1048E00000000000000000000000000000000000C8
:1048F00000000000000003C00001E00000F0000024
:104900007C00003E00001E00000F00000780000732
:10491000800003800003C00003C00003C00003C088
:10492000000380000780000780000F00001E0000C9
:104930003C0000780000F00001E00003800000006F
:104940000000000000000000000000000000000067
:10495000000000000000001C00001C000018000FF8
:1049600018F007DBE0007F0000FF0007DBE00E1817
:1049700070001800001C00001C0000000000000077
:104980000000000000000000000000000000000027
:104990000000000000000000000000000000000017
:1049A0000000000000000000000000000000000007
:1049B00000000000000000000000000000000000F7
:1049C0000000000000003C00003C00003C00003CF7
:1049D00000003C00003C003FFFFC3FFFFC003C00AF
:1049E000003C00003C00003C00003C0000000000D7
:1049F00000000000000000000000000000000000B7
:104A000000000000000000000000000000000000A6
:104A10000000000000000000000000000000000096
:104A20000000000000000000000000000000000086
:104A30000000000000000000000000000000000076
:104A4000000000007C00007E00007E00003E0000B0
:104A50001E00003C0000F80007E000040000000019
:104A60000000000000000000000000000000000046
:104A70000000000000000000000000000000000036
:104A80000000000000000000000000000000000026
:104A90000000000000000003FFE003FFE000000052
:104AA0000000000000000000000000000000000006
:104AB00000000000000000000000000000000000F6
:104AC00000000000000000000000000000000000E6
:104AD00000000000000000000000000000000000D6
:104AE00000000000000000000000000000000000C6
:104AF00000000000000000000000000000000000B6
:104B0000000000007C0000FE0000FE00007E0000AF
:104B10000000000000000000000000000000000095
:104B20000000000000000000000000000000000085
:104B30000000000000000000780000F00000E0002D
:104B400001E00003C0000380000780000F00000E9A
:104B500000001E00003C0000380000700000F00063
:104B600000E00001C00003C0000780000700000F44
:104B700000001E00001C00000000000000000000FB
:104B80000000000000000000000000000000000025
:104B900000000000000000000000000001FFC0074E
:104BA000FFE00F00F01E00781E003C3C00FC3C07BC
:104BB000FC3C1FBC3C7C1C3DF03C3FC03C3F003CEF
:104BC0001E00381E00780F80F007FFE001FF800014
:104BD00000000000000000000000000000000000D5
:104BE00000000000000000000000000000000000C5
:104BF000000000000000000000000000007E000334
:104C0000FE001FDE000E1E00001E00001E00001E23
:104C100000001E00001E00001E00001E00001E00FE
:104C2000001E00001E00001E000FFFF80FFFF8001E
:104C30000000000000000000000000000000000074
:104C40000000000000000000000000000000000064
:104C500000000000000000000000000003FF800FC3
:104C6000FFE00E01F00000F00000F00000F0000096
:104C7000F00001E00003C0000F80003E00007C0057
:104C800001F00003C0000F80001FFFFC1FFFFC00AD
:104C90000000000000000000000000000000000014
:104CA0000000000000000000000000000000000004
:104CB0000000000000000000000000000FFF800F57
:104CC000FFE00001E00000F00000F00001E0000360
:104CD000C001FF0001FFC00003F000007800007871
:104CE0000000780000780001F00FFFC00FFF000007
:104CF00000000000000000000000000000000000B4
:104D000000000000000000000000000000000000A3
:104D1000000000000000000000000000000FC000C4
:104D20001FC0003FC0007BC000F3C001E3C003C34D
:104D3000C00783C00F03C01C03C03803C07FFFFE41
:104D40007FFFFE0003C00003C00003C00003C000DB
:104D50000000000000000000000000000000000053
:104D60000000000000000000000000000000000043
:104D70000000000000000000000000000FFFE00F36
:104D8000FFE00F00000F00000F00000F00000F00F9
:104D9000000FFF800FFFE00000F0000078000078B7
:104DA0000000780000F00003E00FFFC00FFE0000DD
:104DB00000000000000000000000000000000000F3
:104DC00000000000000000000000000000000000E3
:104DD000000000000000000000000000003FF001A3
:104DE000FFF003E0000780000F00001E00001E1F00
:104DF000001FFFE01FC1F81E00781E003C1E003C93
:104E00001E003C0F00780F80F807FFE001FF8000D4
:104E10000000000000000000000000000000000092
:104E20000000000000000000000000000000000082
:104E30000000000000000000000000001FFFFC1F39
:104E4000FFFC0000780000F00000E00001E000033B
:104E5000C0000780000F00000F00001E00003C0093
:104E600000780000F00001F00001E00003C0000045
:104E70000000000000000000000000000000000032
:104E80000000000000000000000000000000000022
:104E900000000000000000000000000003FFE00F21
:104EA000E3F00F00781E00781E00780F00F007E393
:104EB000E001FF8001FF8007E7E00F00F81E0078A7
:104EC0001E003C1E007C1F00F80FFFF003FFC00017
:104ED00000000000000000000000000000000000D2
:104EE00000000000000000000000000000000000C2
:104EF00000000000000000000000000003FF800F21
:104F0000C7E01E00F01E00783C00783C00783C00B2
:104F1000381E00780FEFF807FFB80000780000781F
:104F20000000F00001E0000FC00FFF000FF00000D4
:104F30000000000000000000000000000000000071
:104F40000000000000000000000000000000000061
:104F50000000000000000000000000000000000051
:104F60000000000000000000007E00007E00007EC7
:104F70000000180000000000000000000000000019
:104F8000000000003C00007E00007E00003E0000AB
:104F90000000000000000000000000000000000011
:104FA0000000000000000000000000000000000001
:104FB00000000000000000000000000000000000F1
:104FC0000000000000000000007E00007E00007E67
:104FD00000001800000000000000000000000000B9
:104FE000000000003E00007E00007F00001F000067
:104FF0001E00001E0000FC0007F00004000000007E
:1050000000000000000000000000000000000000A0
:105010000000000000000000000000000000000090
:1050200000000000400001E00007C0001F00007EFB
:105030000001F80003E0000F80000F800003E00093
:1050400000F800003E00000F800003E00000E000D8
:105050000000000000000000000000000000000050
:105060000000000000000000000000000000000040
:105070000000000000000000000000000000000030
:105080000000000000000000000000000000000020
:10509000001FFFF80000000000000000001FFFF8E4
:1050A0001FFFF800000000000000000000000000EA
:1050B00000000000000000000000000000000000F0
:1050C00000000000000000000000000000000000E0
:1050D00000000000000000000000000000000000D0
:1050E000000000000007800003E00000F800003E20
:1050F00000000F800003E00000F80001F00007C08E
:10510000001F00007C0001F00007C0000300000049
:10511000000000000000000000000000000000008F
:10512000000000000000000000000000000000007F
:1051300000000000000001C00001FE00007F8000B0
:1051400007C00001E00000F00000F00001F00003E3
:10515000E0007FC0007E0000700000700000700062
:1051600000000000000000F80000F80000F8000057
:10517000000000000000000000000000000000002F
:10518000000000000000000000000000000000001F
:10519000000000000000001F8000FFF003C078073F
:1051A000801C0E000E1C000E3C000F383FC778FF1D
:1051B000C770E3C771C3C7F3C387E3C387E3878EB1
:1051C000E3878EE3CF8EE3FFFC71F9F0700000708F
:1051D00000003800003C00000F01C007FFC00000C5
:1051E00000000000000000000000000000000000BF
:1051F000000000000000000000000000007E000031
:105200007F0000FF0000E78001E78003C3C003C305
:10521000C00781E00781E00F00F00F00F81FFFF8E2
:105220001FFFFC3C003C3C001E78001EF0000F00FD
:10523000000000000000000000000000000000006E
:10524000000000000000000000000000000000005E
:105250000000000000000000000000001FFFC01F51
:10526000FFF01E00F01E00781E00781E00F01E01E8
:10527000F01FFFC01FFFE01E01F81E00781E003C5B
:105280001E003C1E00781E00F81FFFE01FFF0000FC
:10529000000000000000000000000000000000000E
:1052A00000000000000000000000000000000000FE
:1052B00000000000000000000000000000FFF803F4
:1052C000FFF807C0000F00001E00001E00003C0099
:1052D000003C00003C00003C00003C00003E0000A0
:1052E0001E00000F00000FC00803FFF800FFF800C9
:1052F00000000000000000000000000000000000AE
:10530000000000000000000000000000000000009D
:105310000000000000000000000000003FFF003F10
:10532000FFE03C01F03C00783C003C3C003C3C0091
:105330003C3C001E3C001E3C001E3C003C3C003C33
:105340003C00783C00F83C07E03FFFC03FFC000019
:10535000000000000000000000000000000000004D
:10536000000000000000000000000000000000003D
:105370000000000000000000000000000FFFF00F20
:10538000FFF00F00000F00000F00000F00000F00E3
:10539000000FFFF00FFFF00F00000F00000F0000E4
:1053A0000F00000F00000F00000FFFF00FFFF000D4
:1053B00000000000000000000000000000000000ED
:1053C00000000000000000000000000000000000DD
:1053D0000000000000000000000000000FFFF00FC0
:1053E000FFF00F00000F00000F00000F00000F0083
:1053F000000FFFF00FFFF00F00000F00000F000084
:105400000F00000F00000F00000F00000F00000051
:10541000000000000000000000000000000000008C
:10542000000000000000000000000000000000007C
:1054300000000000000000000000000000FFFC036E
:10544000FFFC0FC0041F00001E00003C00003C00D9
:1054500000780FFC780FFC78003C3C003C3C003CA2
:105460003E003C1F003C0FC03C03FFFC00FFF80067
:10547000000000000000000000000000000000002C
:10548000000000000000000000000000000000001C
:105490000000000000000000000000003C003C3C58
:1054A000003C3C003C3C003C3C003C3C003C3C00A4
:1054B0003C3FFFFC3FFFFC3C003C3C003C3C003CD4
:1054C0003C003C3C003C3C003C3C003C3C003C0084
:1054D00000000000000000000000000000000000CC
:1054E00000000000000000000000000000000000BC
:1054F0000000000000000000000000000FFFF80F97
:10550000FFF8003C00003C00003C00003C00003C78
:1055100000003C00003C00003C00003C00003C005F
:10552000003C00003C00003C000FFFF80FFFF800BB
:10553000000000000000000000000000000000006B
:10554000000000000000000000000000000000005B
:105550000000000000000000000000000FFFE00F4E
:10556000FFE00001E00001E00001E00001E00001D7
:10557000E00001E00001E00001E00001E00001E0E6
:105580000001E00003C00C07C00FFF8007FE000011
:10559000000000000000000000000000000000000B
:1055A00000000000000000000000000000000000FB
:1055B0000000000000000000000000001E00781E37
:1055C00001F01E03C01E07801E1F001E3C001E7837
:1055D000001EF0001FF0001EF8001E3C001E1E0002
:1055E0001E0F801E07C01E01E01E00F81E007C007A
:1055F00000000000000000000000000000000000AB
:10560000000000000000000000000000000000009A
:1056100000000000000000000000000007800007FC
:105620008000078000078000078000078000078057
:1056300000078000078000078000078000078000C7
:1056400007800007800007800007FFF807FFF800C9
:10565000000000000000000000000000000000004A
:10566000000000000000000000000000000000003A
:105670000000000000000000000000003E007C3F31
:1056800000FC3F81DC3B81DC3BC39C39C39C38E799
:105690001C38EF1C387E1C387C1E383C1E78001EDF
:1056A00078001E78001E78001E78001E78001E000C
:1056B00000000000000000000000000000000000EA
:1056C00000000000000000000000000000000000DA
:1056D0000000000000000000000000001F003C1F50
:1056E000803C1FC03C1DC03C1DE03C1CF03C1C78B5
:1056F0003C1C783C1C3C3C1C1E3C1C0F3C1C0F3CC6
:105700001C07BC1C03FC1C01FC1C00FC1C00FC0056
:105710000000000000000000000000000000000089
:105720000000000000000000000000000000000079
:1057300000000000000000000000000001FFC007A2
:10574000FFF00F00F81E007C3C003C3C001E78007F
:105750001E78001E78001E78001E78001E3C003C5B
:105760003C003C1E00781F00F007FFE001FF8000B6
:105770000000000000000000000000000000000029
:105780000000000000000000000000000000000019
:105790000000000000000000000000001FFF801F4C
:1057A000FFF01E00F81E007C1E003C1E003C1E0088
:1057B0003C1E00781E03F01FFFC01FFE001E0000ED
:1057C0001E00001E00001E00001E00001E00000043
:1057D00000000000000000000000000000000000C9
:1057E00000000000000000000000000000000000B9
:1057F00000000000000000000000000001FFC007E2
:10580000FFF00F00F81E007C3C003C3C001E7800BE
:105810001E78001E78001E78001E78001E3C003C9A
:105820003C003C1E00781F80F007FFE001FF800075
:105830003C00003C00001F06000FFF0001F80000C4
:105840000000000000000000000000000000000058
:105850000000000000000000000000000FFF800FAB
:10586000FFE00E01F00E00F00E00F00E00F00E0151
:10587000F00FFFC00FFF000E1F000E07800E03C0C9
:105880000E01E00E00F00E00F80E00780E003C0055
:105890000000000000000000000000000000000008
:1058A00000000000000000000000000000000000F8
:1058B00000000000000000000000000003FFF00FE7
:1058C000FFF01F00001E00001E00001F00000FC0A0
:1058D0000007FC0000FF80000FF00001F8000078D6
:1058E0000000780000782000F83FFFE03FFF8000D4
:1058F00000000000000000000000000000000000A8
:105900000000000000000000000000000000000097
:105910000000000000000000000000003FFFFC3F0E
:10592000FFFC003C00003C00003C00003C00003C50
:1059300000003C00003C00003C00003C00003C003B
:10594000003C00003C00003C00003C00003C00002B
:105950000000000000000000000000000000000047
:105960000000000000000000000000000000000037
:105970000000000000000000000000003C003C3C73
:10598000003C3C003C3C003C3C003C3C003C3C00BF
:105990003C3C003C3C003C3C003C3C003C3C003C73
:1059A0003C003C1E00781F00F80FFFE003FF800062
:1059B00000000000000000000000000000000000E7
:1059C00000000000000000000000000000000000D7
:1059D000000000000000000000000000F8000F7848
:1059E000001E3C001E3C003C1E00381E00780F00CC
:1059F000700F00F00781E00781E003C3C003E3C03C
:105A000001E78000F78000FF00007E00007E0000BC
:105A10000000000000000000000000000000000086
:105A20000000000000000000000000000000000076
:105A300000000000000000000000000078000E7868
:105A4000000E78000E78001E38001E38001E383C0C
:105A50001C383C1C387E1C387F1C3CE71C3CE79CF7
:105A60003DC39C1DC3DC1F81DC1F80F81F00F800B4
:105A70000000000000000000000000000000000026
:105A80000000000000000000000000000000000016
:105A90000000000000000000000000003C003C1E70
:105AA00000780F00F00781E003C3C001E78000FF2A
:105AB00000007E00007E0000FF0001FF8003E7C0C1
:105AC00007C3E00F81F01F00F83E007C7C003E0021
:105AD00000000000000000000000000000000000C6
:105AE00000000000000000000000000000000000B6
:105AF00000000000000000000000000078001F3CD3
:105B0000003E1E007C1F00780F80F007C1E003E319
:105B1000C001E78000FF00007E00003C00003C0068
:105B2000003C00003C00003C00003C00003C000049
:105B30000000000000000000000000000000000065
:105B40000000000000000000000000000000000055
:105B50000000000000000000000000001FFFFC1F0C
:105B6000FFFC0000F80001E00003C0000780000F08
:105B700000001E00003C0000780000F00003E00080
:105B800007C0000F80001F00003FFFFC3FFFFC002C
:105B90000000000000000000000000000000000005
:105BA00000000000000000000000000000000000F5
:105BB00000000000000001FFC001FFC001E0000183
:105BC000E00001E00001E00001E00001E00001E090
:105BD0000001E00001E00001E00001E00001E00060
:105BE00001E00001E00001E00001E00001E000014F
:105BF000E00001E00001E00001E00001FFC0000062
:105C00000000000000000000000000000000000094
:105C10000000000000000E00000F0000070000035D
:105C2000800003C00001E00000E00000F000007808
:105C300000003800003C00001E00000E00000F00B5
:105C40000007800003800001C00001E00000E000C8
:105C5000007000007800003C000000000000000020
:105C60000000000000000000000000000000000034
:105C700000000000000003FF8003FF800007800099
:105C8000078000078000078000078000078000076A
:105C900080000780000780000780000780000780E1
:105CA0000007800007800007800007800007800051
:105CB000078000078000078000078003FF80000046
:105CC00000000000000000000000000000000000D4
:105CD000000000000000000000000000003C000088
:105CE0007E0000E70001C3800381C00700E00E00D2
:105CF000F01E00780000000000000000000000001E
:105D00000000000000000000000000000000000093
:105D10000000000000000000000000000000000083
:105D20000000000000000000000000000000000073
:105D30000000000000000000000000000000000063
:105D40000000000000000000000000000000000053
:105D50000000000000000000000000000000000043
:105D60000000000000000000000000000000000033
:105D70000000000000000000FFFFFFFFFFFF000029
:105D80000000000000000000000000000000000013
:105D90000000000000000F800003E00000F8000099
:105DA0003C000000000000000000000000000000B7
:105DB00000000000000000000000000000000000E3
:105DC00000000000000000000000000000000000D3
:105DD00000000000000000000000000000000000C3
:105DE00000000000000000000000000000000000B3
:105DF00000000000000000000000000000000000A3
:105E0000000000000000000007FFC007E7F00000EE
:105E1000F000007800007800FFF807FFF80F007826
:105E20001E00781E00781E03F80FFFF807FC7800AC
:105E30000000000000000000000000000000000062
:105E40000000000000000000000000000000000052
:105E50000000000000001E00001E00001E00001ECA
:105E600000001E00001E00001E7FE01EFFF01FC08D
:105E7000781F00781E003C1E003C1E003C1E003CAB
:105E80001E00381E00781E00F01FFFE007FF000014
:105E90000000000000000000000000000000000002
:105EA00000000000000000000000000000000000F2
:105EB00000000000000000000000000000000000E2
:105EC000000000000000000000FFF003FFF007C02A
:105ED000000F80000F00001E00001E00001E0000CA
:105EE0000F00000F800007C00003FFF000FFF0006C
:105EF00000000000000000000000000000000000A2
:105F00000000000000000000000000000000000091
:105F10000000000000000000780000780000780019
:105F2000007800007800007801FFF807FFF80F0004
:105F3000781E00781E00783C00783C00783C0078A1
:105F40001C00781E01F81F03F80FFF7803FC78008F
:105F50000000000000000000000000000000000041
:105F60000000000000000000000000000000000031
:105F70000000000000000000000000000000000021
:105F8000000000000000000001FFC007E3F00F0068
:105F9000F81E00781E003C1FFFFC1FFFFC1C0000C9
:105FA0001E00001E00000F800007FFF801FFF80030
:105FB00000000000000000000000000000000000E1
:105FC00000000000000000000000000000000000D1
:105FD0000000000000000003FC001FFE003E000067
:105FE00078000078000070000070000070003FFF33
:105FF000FC3FFFFC007000007000007000007000AB
:106000000070000070000070000070000070000060
:106010000000000000000000000000000000000080
:106020000000000000000000000000000000000070
:106030000000000000000000000000000000000060
:10604000000000000000000003FFFC07C3FC0F007D
:10605000F01E00F01E00F00F00F00F83E00FFFC0F5
:106060001E7C001C00001F00000FFFF00FFFFC1E35
:10607000003C3C003C3C003C1F81F80FFFE0003836
:106080000000000000000000000000000000000010
:106090000000000000001E00001E00001E00001E88
:1060A00000001E00001E00001E7FE01EFFF01FC04B
:1060B000F01F00781E00781E00781E00781E007801
:1060C0001E00781E00781E00781E00781E007800E2
:1060D00000000000000000000000000000000000C0
:1060E00000000000000000000000000000000000B0
:1060F000000000000000003C00007E00007E000068
:106100003C000000000000000FFE000FFE00001E1B
:1061100000001E00001E00001E00001E00001E00E9
:10612000001E00001E00001E000FFFF80FFFF80009
:10613000000000000000000000000000000000005F
:10614000000000000000000000000000000000004F
:106150000000000000000003800007E00007E000EE
:1061600003800000000000000FFFC00FFFC000030D
:10617000C00003C00003C00003C00003C00003C090
:106180000003C00003C00003C00003C00003C00040
:1061900003C00003C00007801E3F001FFE0001C0B7
:1061A00000000000000000000000000000000000EF
:1061B0000000000000000F00000F00000F00000FA3
:1061C00000000F00000F00000F00F80F01E00F07A4
:1061D000C00F1F000F3C000FF8000FF8000F3E002B
:1061E0000F1F000F07C00F03E00F00F80F007C0027
:1061F000000000000000000000000000000000009F
:10620000000000000000000000000000000000008E
:106210000000000000000FFE000FFE00001E000046
:106220001E00001E00001E00001E00001E00001EBA
:1062300000001E00001E00001E00001E00001E00C8
:10624000001E00001E00001E000FFFF80FFFF800E8
:10625000000000000000000000000000000000003E
:10626000000000000000000000000000000000002E
:10627000000000000000000000000000000000001E
:10628000000000000000000039F9F83BBBBC3E3EB6
:106290001C3C3E1C383C1C383C1C383C1C383C1C0C
:1062A000383C1C383C1C383C1C383C1C383C1C001E
:1062B00000000000000000000000000000000000DE
:1062C00000000000000000000000000000000000CE
:1062D00000000000000000000000000000000000BE
:1062E00000000000000000001E7FE01EFFF01FC045
:1062F000F01F00781E00781E00781E00781E0078BF
:106300001E00781E00781E00781E00781E0078009F
:10631000000000000000000000000000000000007D
:10632000000000000000000000000000000000006D
:10633000000000000000000000000000000000005D
:10634000000000000000000001FFC007E7F00F00A0
:10635000F81E003C3C003C3C003C3C003C3C003C0B
:106360003C003C1E00781F00F007FFE001FF8000AA
:10637000000000000000000000000000000000001D
:10638000000000000000000000000000000000000D
:1063900000000000000000000000000000000000FD
:1063A00000000000000000001E7FE01EFFF01FC084
:1063B000781F00781E003C1E003C1E003C1E003C66
:1063C0001E00381E00781E00F01FFFE01FFF001E99
:1063D00000001E00001E00001E00001E0000000045
:1063E00000000000000000000000000000000000AD
:1063F000000000000000000000000000000000009D
:10640000000000000000000001FFF807F7F80F008F
:10641000781E00781E00783C00783C00783C0078BC
:106420001C00781E01F81F03F80FFF7803FC7800AA
:106430000078000078000078000078000078000004
:10644000000000000000000000000000000000004C
:10645000000000000000000000000000000000003C
:1064600000000000000000000F1FF00F7FF80FE099
:106470003C0F803C0F003C0F00000F00000F00009D
:106480000F00000F00000F00000F00000F000000C1
:1064900000000000000000000000000000000000FC
:1064A00000000000000000000000000000000000EC
:1064B00000000000000000000000000000000000DC
:1064C000000000000000000001FFE007E1E00F0015
:1064D000000F000007800003FC0000FFC0000FF069
:1064E0000000F00000780000F00FFFE00FFF8000D8
:1064F000000000000000000000000000000000009C
:10650000000000000000000000000000000000008B
:1065100000000000000000000000000001E0000199
:10652000E00001E00001E0007FFFF87FFFF801E0FC
:106530000001E00001E00001E00001E00001E000F6
:1065400001E00001E00000F000007FF8003FF800EB
:10655000000000000000000000000000000000003B
:10656000000000000000000000000000000000002B
:10657000000000000000000000000000000000001B
:1065800000000000000000001E00781E00781E00C1
:10659000781E00781E00781E00781E00781E007895
:1065A0001E00780E00F80F03F807FF7803FC780050
:1065B00000000000000000000000000000000000DB
:1065C00000000000000000000000000000000000CB
:1065D00000000000000000000000000000000000BB
:1065E00000000000000000003C003C1E007C1E007B
:1065F000780F00F00F80F00781E003C3C003C3C031
:1066000001E78000E70000FF00007E00003C000082
:10661000000000000000000000000000000000007A
:10662000000000000000000000000000000000006A
:10663000000000000000000000000000000000005A
:10664000000000000000000078000E78001E7800B6
:106650001E383C1E383C1C3C7E1C3C7E3C1CE73CEF
:106660001CE7B81DC3B81FC3F80F81F80F81F000F5
:10667000000000000000000000000000000000001A
:10668000000000000000000000000000000000000A
:1066900000000000000000000000000000000000FA
:1066A00000000000000000001F007C0F80F007C108
:1066B000E003E3C000F780007F00003E0000FF0021
:1066C00001E78003C3C00781F01F00F83E007C0093
:1066D00000000000000000000000000000000000BA
:1066E00000000000000000000000000000000000AA
:1066F000000000000000000000000000000000009A
:1067000000000000000000003C003C1E003C1E0099
:10671000780F00F00780F00781E003C1C003C3C019
:1067200001E78000F78000FF00007E00003E0000CF
:106730003C0000780001F0007FE0007F8000000056
:106740000000000000000000000000000000000049
:106750000000000000000000000000000000000039
:1067600000000000000000000FFFF00FFFF000012C
:10677000E00007C0000F80001E00003C0000F80091
:1067800001E00003C0000780000FFFF80FFFF800D2
:1067900000000000000000000000000000000000F9
:1067A00000000000000000000000000000000000E9
:1067B0000000000000000007E0001FE0003C0000B7
:1067C0003800003800007800007800007800007879
:1067D000000078001FF0001F800001F0000078002A
:1067E0000078000078000078000078000078000051
:1067F0007800003800003C00001F80000FE000001F
:1068000000000000000000000000000000003C004C
:10681000003C00003C00003C00003C00003C00004C
:106820003C00003C00003C00003C00003C00003C00
:1068300000003C00003C00003C00003C00003C002C
:10684000003C00003C00003C00003C00003C00001C
:106850003C00003C00003C00003C00003C0000000C
:106860000000000000000000000000000000000028
:1068700000000000000007E00007F800003C0000F6
:106880001E00001E00001E00001E00001E00001E54
:1068900000000E00000FF80001F8000F80000E004D
:1068A000001E00001E00001E00001E00001E000052
:1068B0001E00001E00003C0000FC0007F00000006D
:1068C00000000000000000000000000000000000C8
:1068D00000000000000000000000000000000000B8
:1068E00000000000000000000000000000000000A8
:1068F0000007C0001FF01E3C7C1E381FFC7807F804
:106900000000000000000000000000000000000087
:106910000000000000000000000000000000000077
:10692000000000004469000800000020C0000000D2
:1069300070130008046A0008C00000207897000067
:106940008013000800000000010203040102030498
:106950000607080902040608000000000000000005
:106960000000000000000000F000400106000000F0
:10697000340000200000FFFFC42D000808001000B4
:10698000B4330008100018008445000818002000E7
:1069900000000000000000000000000000000000F7
:1069A00000000000000000000000000000000000E7
:1069B00000000000000000000000000000000000D7
:1069C00000000000000000000000000000000000C7
:1069D00000000000000000000000000000000000B7
:1069E00000000000000000000000000000000000A7
:1069F000000000000000000000000000AAAAAAAAEF
:046A00000000000092
:0400000508000131BD
:00000001FF
